{
  "contractName": "HouseToken",
  "abi": [
    {
      "inputs": [],
      "stateMutability": "payable",
      "type": "constructor",
      "payable": true
    },
    {
      "anonymous": false,
      "inputs": [
        {
          "indexed": true,
          "internalType": "address",
          "name": "owner",
          "type": "address"
        },
        {
          "indexed": true,
          "internalType": "address",
          "name": "approved",
          "type": "address"
        },
        {
          "indexed": true,
          "internalType": "uint256",
          "name": "tokenId",
          "type": "uint256"
        }
      ],
      "name": "Approval",
      "type": "event"
    },
    {
      "anonymous": false,
      "inputs": [
        {
          "indexed": true,
          "internalType": "address",
          "name": "owner",
          "type": "address"
        },
        {
          "indexed": true,
          "internalType": "address",
          "name": "operator",
          "type": "address"
        },
        {
          "indexed": false,
          "internalType": "bool",
          "name": "approved",
          "type": "bool"
        }
      ],
      "name": "ApprovalForAll",
      "type": "event"
    },
    {
      "anonymous": false,
      "inputs": [
        {
          "indexed": true,
          "internalType": "address",
          "name": "from",
          "type": "address"
        },
        {
          "indexed": true,
          "internalType": "address",
          "name": "to",
          "type": "address"
        },
        {
          "indexed": true,
          "internalType": "uint256",
          "name": "tokenId",
          "type": "uint256"
        }
      ],
      "name": "Transfer",
      "type": "event"
    },
    {
      "inputs": [
        {
          "internalType": "address",
          "name": "to",
          "type": "address"
        },
        {
          "internalType": "uint256",
          "name": "tokenId",
          "type": "uint256"
        }
      ],
      "name": "approve",
      "outputs": [],
      "stateMutability": "nonpayable",
      "type": "function"
    },
    {
      "inputs": [
        {
          "internalType": "address",
          "name": "owner",
          "type": "address"
        }
      ],
      "name": "balanceOf",
      "outputs": [
        {
          "internalType": "uint256",
          "name": "",
          "type": "uint256"
        }
      ],
      "stateMutability": "view",
      "type": "function",
      "constant": true
    },
    {
      "inputs": [],
      "name": "baseURI",
      "outputs": [
        {
          "internalType": "string",
          "name": "",
          "type": "string"
        }
      ],
      "stateMutability": "view",
      "type": "function",
      "constant": true
    },
    {
      "inputs": [
        {
          "internalType": "uint256",
          "name": "tokenId",
          "type": "uint256"
        }
      ],
      "name": "getApproved",
      "outputs": [
        {
          "internalType": "address",
          "name": "",
          "type": "address"
        }
      ],
      "stateMutability": "view",
      "type": "function",
      "constant": true
    },
    {
      "inputs": [
        {
          "internalType": "address",
          "name": "owner",
          "type": "address"
        },
        {
          "internalType": "address",
          "name": "operator",
          "type": "address"
        }
      ],
      "name": "isApprovedForAll",
      "outputs": [
        {
          "internalType": "bool",
          "name": "",
          "type": "bool"
        }
      ],
      "stateMutability": "view",
      "type": "function",
      "constant": true
    },
    {
      "inputs": [],
      "name": "name",
      "outputs": [
        {
          "internalType": "string",
          "name": "",
          "type": "string"
        }
      ],
      "stateMutability": "view",
      "type": "function",
      "constant": true
    },
    {
      "inputs": [
        {
          "internalType": "uint256",
          "name": "tokenId",
          "type": "uint256"
        }
      ],
      "name": "ownerOf",
      "outputs": [
        {
          "internalType": "address",
          "name": "",
          "type": "address"
        }
      ],
      "stateMutability": "view",
      "type": "function",
      "constant": true
    },
    {
      "inputs": [
        {
          "internalType": "address",
          "name": "from",
          "type": "address"
        },
        {
          "internalType": "address",
          "name": "to",
          "type": "address"
        },
        {
          "internalType": "uint256",
          "name": "tokenId",
          "type": "uint256"
        }
      ],
      "name": "safeTransferFrom",
      "outputs": [],
      "stateMutability": "nonpayable",
      "type": "function"
    },
    {
      "inputs": [
        {
          "internalType": "address",
          "name": "from",
          "type": "address"
        },
        {
          "internalType": "address",
          "name": "to",
          "type": "address"
        },
        {
          "internalType": "uint256",
          "name": "tokenId",
          "type": "uint256"
        },
        {
          "internalType": "bytes",
          "name": "_data",
          "type": "bytes"
        }
      ],
      "name": "safeTransferFrom",
      "outputs": [],
      "stateMutability": "nonpayable",
      "type": "function"
    },
    {
      "inputs": [
        {
          "internalType": "address",
          "name": "operator",
          "type": "address"
        },
        {
          "internalType": "bool",
          "name": "approved",
          "type": "bool"
        }
      ],
      "name": "setApprovalForAll",
      "outputs": [],
      "stateMutability": "nonpayable",
      "type": "function"
    },
    {
      "inputs": [
        {
          "internalType": "bytes4",
          "name": "interfaceId",
          "type": "bytes4"
        }
      ],
      "name": "supportsInterface",
      "outputs": [
        {
          "internalType": "bool",
          "name": "",
          "type": "bool"
        }
      ],
      "stateMutability": "view",
      "type": "function",
      "constant": true
    },
    {
      "inputs": [],
      "name": "symbol",
      "outputs": [
        {
          "internalType": "string",
          "name": "",
          "type": "string"
        }
      ],
      "stateMutability": "view",
      "type": "function",
      "constant": true
    },
    {
      "inputs": [
        {
          "internalType": "uint256",
          "name": "index",
          "type": "uint256"
        }
      ],
      "name": "tokenByIndex",
      "outputs": [
        {
          "internalType": "uint256",
          "name": "",
          "type": "uint256"
        }
      ],
      "stateMutability": "view",
      "type": "function",
      "constant": true
    },
    {
      "inputs": [
        {
          "internalType": "address",
          "name": "owner",
          "type": "address"
        },
        {
          "internalType": "uint256",
          "name": "index",
          "type": "uint256"
        }
      ],
      "name": "tokenOfOwnerByIndex",
      "outputs": [
        {
          "internalType": "uint256",
          "name": "",
          "type": "uint256"
        }
      ],
      "stateMutability": "view",
      "type": "function",
      "constant": true
    },
    {
      "inputs": [
        {
          "internalType": "uint256",
          "name": "tokenId",
          "type": "uint256"
        }
      ],
      "name": "tokenURI",
      "outputs": [
        {
          "internalType": "string",
          "name": "",
          "type": "string"
        }
      ],
      "stateMutability": "view",
      "type": "function",
      "constant": true
    },
    {
      "inputs": [],
      "name": "totalSupply",
      "outputs": [
        {
          "internalType": "uint256",
          "name": "",
          "type": "uint256"
        }
      ],
      "stateMutability": "view",
      "type": "function",
      "constant": true
    },
    {
      "inputs": [
        {
          "internalType": "address",
          "name": "from",
          "type": "address"
        },
        {
          "internalType": "address",
          "name": "to",
          "type": "address"
        },
        {
          "internalType": "uint256",
          "name": "tokenId",
          "type": "uint256"
        }
      ],
      "name": "transferFrom",
      "outputs": [],
      "stateMutability": "nonpayable",
      "type": "function"
    },
    {
      "inputs": [
        {
          "internalType": "uint256",
          "name": "propertyId",
          "type": "uint256"
        }
      ],
      "name": "GetPropertyToken",
      "outputs": [],
      "stateMutability": "nonpayable",
      "type": "function"
    },
    {
      "inputs": [
        {
          "internalType": "uint256",
          "name": "propertyId",
          "type": "uint256"
        },
        {
          "internalType": "address",
          "name": "contractAddress",
          "type": "address"
        }
      ],
      "name": "GiveTokenAccess",
      "outputs": [],
      "stateMutability": "nonpayable",
      "type": "function"
    }
  ],
  "bytecode": "0x600b60809081526a2437bab9b2902a37b5b2b760a91b60a052610100604052600260c090815261121560f21b60e052620000496301ffc9a760e01b6001600160e01b03620000d316565b81516200005e90600690602085019062000158565b5080516200007490600790602084019062000158565b50620000906380ac58cd60e01b6001600160e01b03620000d316565b620000ab635b5e139f60e01b6001600160e01b03620000d316565b620000c663780e9d6360e01b6001600160e01b03620000d316565b50506000600a55620001fd565b6001600160e01b0319808216141562000133576040805162461bcd60e51b815260206004820152601c60248201527f4552433136353a20696e76616c696420696e7465726661636520696400000000604482015290519081900360640190fd5b6001600160e01b0319166000908152602081905260409020805460ff19166001179055565b828054600181600116156101000203166002900490600052602060002090601f016020900481019282601f106200019b57805160ff1916838001178555620001cb565b82800160010185558215620001cb579182015b82811115620001cb578251825591602001919060010190620001ae565b50620001d9929150620001dd565b5090565b620001fa91905b80821115620001d95760008155600101620001e4565b90565b611d07806200020d6000396000f3fe608060405234801561001057600080fd5b50600436106101515760003560e01c80636352211e116100cd57806395d89b4111610081578063b88d4fde11610066578063b88d4fde14610426578063c87b56dd146104ec578063e985e9c51461050957610151565b806395d89b41146103f0578063a22cb465146103f857610151565b80636c0360eb116100b25780636c0360eb146103a557806370a08231146103ad57806380ab705d146103d357610151565b80636352211e1461035c57806367afaa951461037957610151565b806318160ddd116101245780632f745c59116101095780632f745c59146102dd57806342842e0e146103095780634f6ccce71461033f57610151565b806318160ddd1461028d57806323b872dd146102a757610151565b806301ffc9a71461015657806306fdde03146101a9578063081812fc14610226578063095ea7b31461025f575b600080fd5b6101956004803603602081101561016c57600080fd5b50357fffffffff0000000000000000000000000000000000000000000000000000000016610537565b604080519115158252519081900360200190f35b6101b1610572565b6040805160208082528351818301528351919283929083019185019080838360005b838110156101eb5781810151838201526020016101d3565b50505050905090810190601f1680156102185780820380516001836020036101000a031916815260200191505b509250505060405180910390f35b6102436004803603602081101561023c57600080fd5b5035610608565b604080516001600160a01b039092168252519081900360200190f35b61028b6004803603604081101561027557600080fd5b506001600160a01b03813516906020013561066a565b005b610295610745565b60408051918252519081900360200190f35b61028b600480360360608110156102bd57600080fd5b506001600160a01b03813581169160208101359091169060400135610756565b610295600480360360408110156102f357600080fd5b506001600160a01b0381351690602001356107ad565b61028b6004803603606081101561031f57600080fd5b506001600160a01b038135811691602081013590911690604001356107de565b6102956004803603602081101561035557600080fd5b50356107f9565b6102436004803603602081101561037257600080fd5b5035610815565b61028b6004803603604081101561038f57600080fd5b50803590602001356001600160a01b0316610843565b6101b1610851565b610295600480360360208110156103c357600080fd5b50356001600160a01b03166108b2565b61028b600480360360208110156103e957600080fd5b503561091a565b6101b1610927565b61028b6004803603604081101561040e57600080fd5b506001600160a01b0381351690602001351515610988565b61028b6004803603608081101561043c57600080fd5b6001600160a01b0382358116926020810135909116916040820135919081019060808101606082013564010000000081111561047757600080fd5b82018360208201111561048957600080fd5b803590602001918460018302840111640100000000831117156104ab57600080fd5b91908080601f016020809104026020016040519081016040528093929190818152602001838380828437600092019190915250929550610a8d945050505050565b6101b16004803603602081101561050257600080fd5b5035610aeb565b6101956004803603604081101561051f57600080fd5b506001600160a01b0381358116916020013516610d92565b7fffffffff00000000000000000000000000000000000000000000000000000000811660009081526020819052604090205460ff165b919050565b60068054604080516020601f60026000196101006001881615020190951694909404938401819004810282018101909252828152606093909290918301828280156105fe5780601f106105d3576101008083540402835291602001916105fe565b820191906000526020600020905b8154815290600101906020018083116105e157829003601f168201915b5050505050905090565b600061061382610dc0565b61064e5760405162461bcd60e51b815260040180806020018281038252602c815260200180611bfc602c913960400191505060405180910390fd5b506000908152600460205260409020546001600160a01b031690565b600061067582610815565b9050806001600160a01b0316836001600160a01b031614156106c85760405162461bcd60e51b8152600401808060200182810382526021815260200180611c806021913960400191505060405180910390fd5b806001600160a01b03166106da610dd3565b6001600160a01b031614806106fb57506106fb816106f6610dd3565b610d92565b6107365760405162461bcd60e51b8152600401808060200182810382526038815260200180611b4f6038913960400191505060405180910390fd5b6107408383610dd7565b505050565b60006107516002610e5d565b905090565b610767610761610dd3565b82610e68565b6107a25760405162461bcd60e51b8152600401808060200182810382526031815260200180611ca16031913960400191505060405180910390fd5b610740838383610f0c565b6001600160a01b03821660009081526001602052604081206107d5908363ffffffff61106a16565b90505b92915050565b61074083838360405180602001604052806000815250610a8d565b60008061080d60028463ffffffff61107616565b509392505050565b60006107d882604051806060016040528060298152602001611bb1602991396002919063ffffffff61109216565b61084d818361066a565b5050565b60098054604080516020601f60026000196101006001881615020190951694909404938401819004810282018101909252828152606093909290918301828280156105fe5780601f106105d3576101008083540402835291602001916105fe565b60006001600160a01b0382166108f95760405162461bcd60e51b815260040180806020018281038252602a815260200180611b87602a913960400191505060405180910390fd5b6001600160a01b03821660009081526001602052604090206107d890610e5d565b61092433826110a9565b50565b60078054604080516020601f60026000196101006001881615020190951694909404938401819004810282018101909252828152606093909290918301828280156105fe5780601f106105d3576101008083540402835291602001916105fe565b610990610dd3565b6001600160a01b0316826001600160a01b031614156109f6576040805162461bcd60e51b815260206004820152601960248201527f4552433732313a20617070726f766520746f2063616c6c657200000000000000604482015290519081900360640190fd5b8060056000610a03610dd3565b6001600160a01b03908116825260208083019390935260409182016000908120918716808252919093529120805460ff191692151592909217909155610a47610dd3565b60408051841515815290516001600160a01b0392909216917f17307eab39ab6107e8899845ad3d59bd9653f200f220920489ca2b5937696c319181900360200190a35050565b610a9e610a98610dd3565b83610e68565b610ad95760405162461bcd60e51b8152600401808060200182810382526031815260200180611ca16031913960400191505060405180910390fd5b610ae5848484846110c3565b50505050565b6060610af682610dc0565b610b315760405162461bcd60e51b815260040180806020018281038252602f815260200180611c51602f913960400191505060405180910390fd5b60008281526008602090815260409182902080548351601f6002600019610100600186161502019093169290920491820184900484028101840190945280845260609392830182828015610bc65780601f10610b9b57610100808354040283529160200191610bc6565b820191906000526020600020905b815481529060010190602001808311610ba957829003601f168201915b505060095493945050505060026000196101006001841615020190911604610bef57905061056d565b805115610cc0576009816040516020018083805460018160011615610100020316600290048015610c575780601f10610c35576101008083540402835291820191610c57565b820191906000526020600020905b815481529060010190602001808311610c43575b5050825160208401908083835b60208310610c835780518252601f199092019160209182019101610c64565b6001836020036101000a0380198251168184511680821785525050505050509050019250505060405160208183030381529060405291505061056d565b6009610ccb84611115565b6040516020018083805460018160011615610100020316600290048015610d295780601f10610d07576101008083540402835291820191610d29565b820191906000526020600020905b815481529060010190602001808311610d15575b5050825160208401908083835b60208310610d555780518252601f199092019160209182019101610d36565b6001836020036101000a03801982511681845116808217855250505050505090500192505050604051602081830303815290604052915050919050565b6001600160a01b03918216600090815260056020908152604080832093909416825291909152205460ff1690565b60006107d860028363ffffffff61122416565b3390565b600081815260046020526040902080547fffffffffffffffffffffffff0000000000000000000000000000000000000000166001600160a01b0384169081179091558190610e2482610815565b6001600160a01b03167f8c5be1e5ebec7d5bd14f71427d1e84f3dd0314c0f7b2291e5b200ac8c7c3b92560405160405180910390a45050565b60006107d882611230565b6000610e7382610dc0565b610eae5760405162461bcd60e51b815260040180806020018281038252602c815260200180611b23602c913960400191505060405180910390fd5b6000610eb983610815565b9050806001600160a01b0316846001600160a01b03161480610ef45750836001600160a01b0316610ee984610608565b6001600160a01b0316145b80610f045750610f048185610d92565b949350505050565b826001600160a01b0316610f1f82610815565b6001600160a01b031614610f645760405162461bcd60e51b8152600401808060200182810382526029815260200180611c286029913960400191505060405180910390fd5b6001600160a01b038216610fa95760405162461bcd60e51b8152600401808060200182810382526024815260200180611aff6024913960400191505060405180910390fd5b610fb4838383610740565b610fbf600082610dd7565b6001600160a01b0383166000908152600160205260409020610fe7908263ffffffff61123416565b506001600160a01b0382166000908152600160205260409020611010908263ffffffff61124016565b506110236002828463ffffffff61124c16565b5080826001600160a01b0316846001600160a01b03167fddf252ad1be2c89b69c2b068fc378daa952ba7f163c4a11628f55a4df523b3ef60405160405180910390a4505050565b60006107d58383611262565b600080808061108586866112c6565b9097909650945050505050565b600061109f848484611341565b90505b9392505050565b61084d82826040518060200160405280600081525061140b565b6110ce848484610f0c565b6110da8484848461145d565b610ae55760405162461bcd60e51b8152600401808060200182810382526032815260200180611acd6032913960400191505060405180910390fd5b606081611156575060408051808201909152600181527f3000000000000000000000000000000000000000000000000000000000000000602082015261056d565b8160005b811561116e57600101600a8204915061115a565b60608167ffffffffffffffff8111801561118757600080fd5b506040519080825280601f01601f1916602001820160405280156111b2576020820181803683370190505b50859350905060001982015b831561121b57600a840660300160f81b828280600190039350815181106111e157fe5b60200101907effffffffffffffffffffffffffffffffffffffffffffffffffffffffffffff1916908160001a905350600a840493506111be565b50949350505050565b60006107d5838361161f565b5490565b60006107d58383611637565b60006107d583836116fd565b600061109f84846001600160a01b038516611747565b815460009082106112a45760405162461bcd60e51b8152600401808060200182810382526022815260200180611aab6022913960400191505060405180910390fd5b8260000182815481106112b357fe5b9060005260206000200154905092915050565b81546000908190831061130a5760405162461bcd60e51b8152600401808060200182810382526022815260200180611bda6022913960400191505060405180910390fd5b600084600001848154811061131b57fe5b906000526020600020906002020190508060000154816001015492509250509250929050565b600082815260018401602052604081205482816113dc5760405162461bcd60e51b81526004018080602001828103825283818151815260200191508051906020019080838360005b838110156113a1578181015183820152602001611389565b50505050905090810190601f1680156113ce5780820380516001836020036101000a031916815260200191505b509250505060405180910390fd5b508460000160018203815481106113ef57fe5b9060005260206000209060020201600101549150509392505050565b61141583836117de565b611422600084848461145d565b6107405760405162461bcd60e51b8152600401808060200182810382526032815260200180611acd6032913960400191505060405180910390fd5b6000611471846001600160a01b0316611918565b61147d57506001610f04565b60606115cd630a85bd0160e11b611492610dd3565b88878760405160240180856001600160a01b03166001600160a01b03168152602001846001600160a01b03166001600160a01b0316815260200183815260200180602001828103825283818151815260200191508051906020019080838360005b8381101561150b5781810151838201526020016114f3565b50505050905090810190601f1680156115385780820380516001836020036101000a031916815260200191505b5095505050505050604051602081830303815290604052907bffffffffffffffffffffffffffffffffffffffffffffffffffffffff19166020820180517bffffffffffffffffffffffffffffffffffffffffffffffffffffffff8381831617835250505050604051806060016040528060328152602001611acd603291396001600160a01b038816919063ffffffff61191e16565b905060008180602001905160208110156115e657600080fd5b50517fffffffff0000000000000000000000000000000000000000000000000000000016630a85bd0160e11b1492505050949350505050565b60009081526001919091016020526040902054151590565b600081815260018301602052604081205480156116f3578354600019808301919081019060009087908390811061166a57fe5b906000526020600020015490508087600001848154811061168757fe5b6000918252602080832090910192909255828152600189810190925260409020908401905586548790806116b757fe5b600190038181906000526020600020016000905590558660010160008781526020019081526020016000206000905560019450505050506107d8565b60009150506107d8565b6000611709838361161f565b61173f575081546001818101845560008481526020808220909301849055845484825282860190935260409020919091556107d8565b5060006107d8565b6000828152600184016020526040812054806117ac5750506040805180820182528381526020808201848152865460018181018955600089815284812095516002909302909501918255915190820155865486845281880190925292909120556110a2565b828560000160018303815481106117bf57fe5b90600052602060002090600202016001018190555060009150506110a2565b6001600160a01b038216611839576040805162461bcd60e51b815260206004820181905260248201527f4552433732313a206d696e7420746f20746865207a65726f2061646472657373604482015290519081900360640190fd5b61184281610dc0565b15611894576040805162461bcd60e51b815260206004820152601c60248201527f4552433732313a20746f6b656e20616c7265616479206d696e74656400000000604482015290519081900360640190fd5b6118a060008383610740565b6001600160a01b03821660009081526001602052604090206118c8908263ffffffff61124016565b506118db6002828463ffffffff61124c16565b5060405181906001600160a01b038416906000907fddf252ad1be2c89b69c2b068fc378daa952ba7f163c4a11628f55a4df523b3ef908290a45050565b3b151590565b606061109f84846000858561193285611918565b611983576040805162461bcd60e51b815260206004820152601d60248201527f416464726573733a2063616c6c20746f206e6f6e2d636f6e7472616374000000604482015290519081900360640190fd5b60006060866001600160a01b031685876040518082805190602001908083835b602083106119c25780518252601f1990920191602091820191016119a3565b6001836020036101000a03801982511681845116808217855250505050505090500191505060006040518083038185875af1925050503d8060008114611a24576040519150601f19603f3d011682016040523d82523d6000602084013e611a29565b606091505b5091509150611a39828286611a44565b979650505050505050565b60608315611a535750816110a2565b825115611a635782518084602001fd5b60405162461bcd60e51b81526020600482018181528451602484015284518593919283926044019190850190808383600083156113a157818101518382015260200161138956fe456e756d657261626c655365743a20696e646578206f7574206f6620626f756e64734552433732313a207472616e7366657220746f206e6f6e20455243373231526563656976657220696d706c656d656e7465724552433732313a207472616e7366657220746f20746865207a65726f20616464726573734552433732313a206f70657261746f7220717565727920666f72206e6f6e6578697374656e7420746f6b656e4552433732313a20617070726f76652063616c6c6572206973206e6f74206f776e6572206e6f7220617070726f76656420666f7220616c6c4552433732313a2062616c616e636520717565727920666f7220746865207a65726f20616464726573734552433732313a206f776e657220717565727920666f72206e6f6e6578697374656e7420746f6b656e456e756d657261626c654d61703a20696e646578206f7574206f6620626f756e64734552433732313a20617070726f76656420717565727920666f72206e6f6e6578697374656e7420746f6b656e4552433732313a207472616e73666572206f6620746f6b656e2074686174206973206e6f74206f776e4552433732314d657461646174613a2055524920717565727920666f72206e6f6e6578697374656e7420746f6b656e4552433732313a20617070726f76616c20746f2063757272656e74206f776e65724552433732313a207472616e736665722063616c6c6572206973206e6f74206f776e6572206e6f7220617070726f766564a2646970667358221220cf99045329d8c0f970f7fc31386fb9642ce6f2228f7821c486c23e8f9201051f64736f6c63430006060033",
  "immutableReferences": {},
  "source": "pragma solidity ^0.6.6;\r\n\r\nimport \"@openzeppelin/contracts/token/ERC721/ERC721.sol\";\r\n\r\ncontract HouseToken is ERC721 {\r\n\tuint256 tokenId;\r\n\t\r\n    constructor() ERC721(\"House Token\", \"HT\") public payable {\r\n\t\ttokenId = 0;\r\n\t}\r\n\r\n\tfunction GetPropertyToken(uint256 propertyId) public {\r\n\t\t_safeMint(msg.sender, propertyId);\r\n\t}\r\n\r\n\tfunction GiveTokenAccess(uint256 propertyId, address contractAddress) public {\r\n\t\tapprove(contractAddress, propertyId);\r\n\t}\r\n}",
  "sourcePath": "C:/Users/Pean/Downloads/frontEndTest/contracts/HouseToken.sol",
  "compiler": {
    "name": "solc",
    "version": "0.6.6+commit.6c089d02.Emscripten.clang"
  },
  "schemaVersion": "3.3.4",
  "updatedAt": "2021-04-11T16:31:39.859Z",
  "networkType": "ethereum",
  "devdoc": {
    "methods": {
      "approve(address,uint256)": {
        "details": "See {IERC721-approve}."
      },
      "balanceOf(address)": {
        "details": "See {IERC721-balanceOf}."
      },
      "baseURI()": {
        "details": "Returns the base URI set via {_setBaseURI}. This will be automatically added as a prefix in {tokenURI} to each token's URI, or to the token ID if no specific URI is set for that token ID."
      },
      "getApproved(uint256)": {
        "details": "See {IERC721-getApproved}."
      },
      "isApprovedForAll(address,address)": {
        "details": "See {IERC721-isApprovedForAll}."
      },
      "name()": {
        "details": "See {IERC721Metadata-name}."
      },
      "ownerOf(uint256)": {
        "details": "See {IERC721-ownerOf}."
      },
      "safeTransferFrom(address,address,uint256)": {
        "details": "See {IERC721-safeTransferFrom}."
      },
      "safeTransferFrom(address,address,uint256,bytes)": {
        "details": "See {IERC721-safeTransferFrom}."
      },
      "setApprovalForAll(address,bool)": {
        "details": "See {IERC721-setApprovalForAll}."
      },
      "supportsInterface(bytes4)": {
        "details": "See {IERC165-supportsInterface}.     * Time complexity O(1), guaranteed to always use less than 30 000 gas."
      },
      "symbol()": {
        "details": "See {IERC721Metadata-symbol}."
      },
      "tokenByIndex(uint256)": {
        "details": "See {IERC721Enumerable-tokenByIndex}."
      },
      "tokenOfOwnerByIndex(address,uint256)": {
        "details": "See {IERC721Enumerable-tokenOfOwnerByIndex}."
      },
      "tokenURI(uint256)": {
        "details": "See {IERC721Metadata-tokenURI}."
      },
      "totalSupply()": {
        "details": "See {IERC721Enumerable-totalSupply}."
      },
      "transferFrom(address,address,uint256)": {
        "details": "See {IERC721-transferFrom}."
      }
    }
  },
  "userdoc": {
    "methods": {}
  }
}