{
  "contractName": "MortgageContract",
  "abi": [
    {
      "inputs": [
        {
          "internalType": "address",
          "name": "propertyTokenAddress",
          "type": "address"
        }
      ],
      "stateMutability": "payable",
      "type": "constructor",
      "payable": true
    },
    {
      "inputs": [
        {
          "internalType": "string",
          "name": "",
          "type": "string"
        }
      ],
      "name": "Process_1ActiveStates",
      "outputs": [
        {
          "internalType": "bool",
          "name": "",
          "type": "bool"
        }
      ],
      "stateMutability": "view",
      "type": "function",
      "constant": true
    },
    {
      "inputs": [
        {
          "internalType": "string",
          "name": "",
          "type": "string"
        }
      ],
      "name": "addressMapping",
      "outputs": [
        {
          "internalType": "address",
          "name": "",
          "type": "address"
        }
      ],
      "stateMutability": "view",
      "type": "function",
      "constant": true
    },
    {
      "inputs": [],
      "name": "contractValidDate",
      "outputs": [
        {
          "internalType": "uint256",
          "name": "",
          "type": "uint256"
        }
      ],
      "stateMutability": "view",
      "type": "function",
      "constant": true
    },
    {
      "inputs": [],
      "name": "insurance",
      "outputs": [
        {
          "internalType": "bool",
          "name": "isEnsured",
          "type": "bool"
        },
        {
          "internalType": "string",
          "name": "additionalInformation",
          "type": "string"
        }
      ],
      "stateMutability": "view",
      "type": "function",
      "constant": true
    },
    {
      "inputs": [],
      "name": "isContractCancelable",
      "outputs": [
        {
          "internalType": "bool",
          "name": "",
          "type": "bool"
        }
      ],
      "stateMutability": "view",
      "type": "function",
      "constant": true
    },
    {
      "inputs": [],
      "name": "isIndemnityValid",
      "outputs": [
        {
          "internalType": "bool",
          "name": "",
          "type": "bool"
        }
      ],
      "stateMutability": "view",
      "type": "function",
      "constant": true
    },
    {
      "inputs": [],
      "name": "lenderAgreed",
      "outputs": [
        {
          "internalType": "bool",
          "name": "",
          "type": "bool"
        }
      ],
      "stateMutability": "view",
      "type": "function",
      "constant": true
    },
    {
      "inputs": [],
      "name": "mortgage",
      "outputs": [
        {
          "internalType": "uint256",
          "name": "propertyId",
          "type": "uint256"
        },
        {
          "internalType": "uint256",
          "name": "propertyPrice",
          "type": "uint256"
        },
        {
          "internalType": "uint256",
          "name": "rate",
          "type": "uint256"
        },
        {
          "internalType": "uint256",
          "name": "downPaymentValue",
          "type": "uint256"
        },
        {
          "internalType": "uint256",
          "name": "mortgageDurationMonths",
          "type": "uint256"
        },
        {
          "internalType": "uint256",
          "name": "totalPaid",
          "type": "uint256"
        }
      ],
      "stateMutability": "view",
      "type": "function",
      "constant": true
    },
    {
      "inputs": [],
      "name": "mortgageCancellation",
      "outputs": [
        {
          "internalType": "string",
          "name": "reason",
          "type": "string"
        },
        {
          "internalType": "bool",
          "name": "confirmation",
          "type": "bool"
        }
      ],
      "stateMutability": "view",
      "type": "function",
      "constant": true
    },
    {
      "inputs": [],
      "name": "mortgageCompleted",
      "outputs": [
        {
          "internalType": "bool",
          "name": "",
          "type": "bool"
        }
      ],
      "stateMutability": "view",
      "type": "function",
      "constant": true
    },
    {
      "inputs": [],
      "name": "mortgageDefaultRequest",
      "outputs": [
        {
          "internalType": "string",
          "name": "",
          "type": "string"
        }
      ],
      "stateMutability": "view",
      "type": "function",
      "constant": true
    },
    {
      "inputs": [],
      "name": "ownerAgreed",
      "outputs": [
        {
          "internalType": "bool",
          "name": "",
          "type": "bool"
        }
      ],
      "stateMutability": "view",
      "type": "function",
      "constant": true
    },
    {
      "inputs": [],
      "name": "propertyToken",
      "outputs": [
        {
          "internalType": "contract HouseToken",
          "name": "",
          "type": "address"
        }
      ],
      "stateMutability": "view",
      "type": "function",
      "constant": true
    },
    {
      "inputs": [],
      "name": "termsViolated",
      "outputs": [
        {
          "internalType": "bool",
          "name": "",
          "type": "bool"
        }
      ],
      "stateMutability": "view",
      "type": "function",
      "constant": true
    },
    {
      "inputs": [],
      "name": "getPropertyTokenAddress",
      "outputs": [
        {
          "internalType": "address",
          "name": "",
          "type": "address"
        }
      ],
      "stateMutability": "view",
      "type": "function",
      "constant": true
    },
    {
      "inputs": [],
      "name": "getContractBalance",
      "outputs": [
        {
          "internalType": "uint256",
          "name": "",
          "type": "uint256"
        }
      ],
      "stateMutability": "view",
      "type": "function",
      "constant": true
    },
    {
      "inputs": [
        {
          "internalType": "string",
          "name": "state",
          "type": "string"
        }
      ],
      "name": "isStateActiveProcess_1",
      "outputs": [
        {
          "internalType": "bool",
          "name": "",
          "type": "bool"
        }
      ],
      "stateMutability": "view",
      "type": "function",
      "constant": true
    },
    {
      "inputs": [
        {
          "internalType": "string",
          "name": "role",
          "type": "string"
        }
      ],
      "name": "getRoleAddress",
      "outputs": [
        {
          "internalType": "address",
          "name": "",
          "type": "address"
        }
      ],
      "stateMutability": "view",
      "type": "function",
      "constant": true
    },
    {
      "inputs": [
        {
          "internalType": "uint256",
          "name": "propertyId",
          "type": "uint256"
        },
        {
          "internalType": "uint256",
          "name": "propertyPrice",
          "type": "uint256"
        },
        {
          "internalType": "uint256",
          "name": "rate",
          "type": "uint256"
        },
        {
          "internalType": "uint256",
          "name": "mortgageDurationMonths",
          "type": "uint256"
        }
      ],
      "name": "ApplyForaMortgagePayable",
      "outputs": [],
      "stateMutability": "payable",
      "type": "function",
      "payable": true
    },
    {
      "inputs": [
        {
          "internalType": "string",
          "name": "notes",
          "type": "string"
        }
      ],
      "name": "AcceptInsurance",
      "outputs": [],
      "stateMutability": "nonpayable",
      "type": "function"
    },
    {
      "inputs": [],
      "name": "EscrowPropertyRights",
      "outputs": [],
      "stateMutability": "nonpayable",
      "type": "function"
    },
    {
      "inputs": [],
      "name": "EscrowMoneyPayable",
      "outputs": [],
      "stateMutability": "payable",
      "type": "function",
      "payable": true
    },
    {
      "inputs": [
        {
          "internalType": "string",
          "name": "reason",
          "type": "string"
        }
      ],
      "name": "CancelApplication",
      "outputs": [],
      "stateMutability": "nonpayable",
      "type": "function"
    },
    {
      "inputs": [
        {
          "internalType": "string",
          "name": "reason",
          "type": "string"
        }
      ],
      "name": "RequestDefault",
      "outputs": [],
      "stateMutability": "nonpayable",
      "type": "function"
    },
    {
      "inputs": [],
      "name": "PayMortgageFeePayable",
      "outputs": [],
      "stateMutability": "payable",
      "type": "function",
      "payable": true
    },
    {
      "inputs": [
        {
          "internalType": "bool",
          "name": "validity",
          "type": "bool"
        }
      ],
      "name": "CheckIndemnityTerms",
      "outputs": [],
      "stateMutability": "nonpayable",
      "type": "function"
    },
    {
      "inputs": [],
      "name": "PayfortheBorrowerPayable",
      "outputs": [],
      "stateMutability": "payable",
      "type": "function",
      "payable": true
    },
    {
      "inputs": [],
      "name": "TransferProportionMoneytotheBorrowerPayable",
      "outputs": [],
      "stateMutability": "payable",
      "type": "function",
      "payable": true
    }
  ],
  "bytecode": "0x608060405260008055604051612b9c380380612b9c8339818101604052602081101561002a57600080fd5b5051600380546001600160a01b039092166001600160a01b0319909216919091179055604080517f4170706c79466f72614d6f72746761676550617961626c65000000000000000081526001601882018190529151908190036038019020805460ff19169091179055612afa806100a26000396000f3fe6080604052600436106101b75760003560e01c806372a34a82116100ec5780639853ba771161008a578063a6e2596711610064578063a6e25967146108ff578063c034191714610914578063e5a1f05714610940578063f377b916146109f3576101b7565b80639853ba77146108b35780639df0b183146108bb578063a3cda8ef146108ea576101b7565b80638861a3cb116100c65780638861a3cb146106ee57806389cf3204146107a15780638a442b1d146107f857806390964de5146108ab576101b7565b806372a34a821461067c5780637b67e7c814610691578063812c38a8146106a6576101b7565b80632fd601b5116101595780634ca2fa32116101335780634ca2fa3214610585578063576dc7f614610638578063633323d61461065f5780636f9fb98a14610667576101b7565b80632fd601b5146104c3578063329d858e146104d857806343ae269514610570576101b7565b80631d7391a9116101955780631d7391a9146103105780631db4ddc7146103df578063207da3ee146103e7578063242a76b114610410576101b7565b80630785fb9c146101bc5780630e85fd3c146101d357806311eb9f191461025d575b600080fd5b3480156101c857600080fd5b506101d1610a08565b005b3480156101df57600080fd5b506101e8610d28565b6040805160208082528351818301528351919283929083019185019080838360005b8381101561022257818101518382015260200161020a565b50505050905090810190601f16801561024f5780820380516001836020036101000a031916815260200191505b509250505060405180910390f35b34801561026957600080fd5b506101d16004803603602081101561028057600080fd5b81019060208101813564010000000081111561029b57600080fd5b8201836020820111156102ad57600080fd5b803590602001918460018302840111640100000000831117156102cf57600080fd5b91908080601f016020809104026020016040519081016040528093929190818152602001838380828437600092019190915250929550610db6945050505050565b34801561031c57600080fd5b506103c36004803603602081101561033357600080fd5b81019060208101813564010000000081111561034e57600080fd5b82018360208201111561036057600080fd5b8035906020019184600183028401116401000000008311171561038257600080fd5b91908080601f016020809104026020016040519081016040528093929190818152602001838380828437600092019190915250929550610ee0945050505050565b604080516001600160a01b039092168252519081900360200190f35b6101d1610f06565b3480156103f357600080fd5b506103fc611059565b604080519115158252519081900360200190f35b34801561041c57600080fd5b506103c36004803603602081101561043357600080fd5b81019060208101813564010000000081111561044e57600080fd5b82018360208201111561046057600080fd5b8035906020019184600183028401116401000000008311171561048257600080fd5b91908080601f016020809104026020016040519081016040528093929190818152602001838380828437600092019190915250929550611068945050505050565b3480156104cf57600080fd5b506103fc6110d9565b3480156104e457600080fd5b506104ed6110e7565b604051808060200183151515158152602001828103825284818151815260200191508051906020019080838360005b8381101561053457818101518382015260200161051c565b50505050905090810190601f1680156105615780820380516001836020036101000a031916815260200191505b50935050505060405180910390f35b34801561057c57600080fd5b506103c3611182565b34801561059157600080fd5b506103fc600480360360208110156105a857600080fd5b8101906020810181356401000000008111156105c357600080fd5b8201836020820111156105d557600080fd5b803590602001918460018302840111640100000000831117156105f757600080fd5b91908080601f016020809104026020016040519081016040528093929190818152602001838380828437600092019190915250929550611191945050505050565b34801561064457600080fd5b5061064d6111fc565b60408051918252519081900360200190f35b6101d1611202565b34801561067357600080fd5b5061064d611370565b34801561068857600080fd5b506103fc611375565b34801561069d57600080fd5b506103c361137e565b3480156106b257600080fd5b506106bb61138d565b604080519687526020870195909552858501939093526060850191909152608084015260a0830152519081900360c00190f35b3480156106fa57600080fd5b506103fc6004803603602081101561071157600080fd5b81019060208101813564010000000081111561072c57600080fd5b82018360208201111561073e57600080fd5b8035906020019184600183028401116401000000008311171561076057600080fd5b91908080601f0160208091040260200160405190810160405280939291908181526020018383808284376000920191909152509295506113a2945050505050565b3480156107ad57600080fd5b506107b66113c2565b6040805183151581526020808201838152845193830193909352835191929160608401918501908083836000831561053457818101518382015260200161051c565b34801561080457600080fd5b506101d16004803603602081101561081b57600080fd5b81019060208101813564010000000081111561083657600080fd5b82018360208201111561084857600080fd5b8035906020019184600183028401116401000000008311171561086a57600080fd5b91908080601f01602080910402602001604051908101604052809392919081815260200183838082843760009201919091525092955061145d945050505050565b6101d1611590565b6101d1611812565b6101d1600480360360808110156108d157600080fd5b5080359060208101359060408101359060600135611a39565b3480156108f657600080fd5b506103fc611ba1565b34801561090b57600080fd5b506103fc611bb1565b34801561092057600080fd5b506101d16004803603602081101561093757600080fd5b50351515611bba565b34801561094c57600080fd5b506101d16004803603602081101561096357600080fd5b81019060208101813564010000000081111561097e57600080fd5b82018360208201111561099057600080fd5b803590602001918460018302840111640100000000831117156109b257600080fd5b91908080601f016020809104026020016040519081016040528093929190818152602001838380828437600092019190915250929550611d03945050505050565b3480156109ff57600080fd5b506103fc611e58565b610a466040518060400160405280601481526020017f457363726f7750726f7065727479526967687473000000000000000000000000815250611191565b1515600114610a5457600080fd5b604080516d283937b832b93a3c9027bbb732b960911b81526002600e820152905190819003602e019020546001600160a01b0316610ac757604080516d283937b832b93a3c9027bbb732b960911b81526002600e820152905190819003602e01902080546001600160a01b031916331790555b604080516d283937b832b93a3c9027bbb732b960911b81526002600e820152905190819003602e01902054336001600160a01b0390911614610b0857600080fd5b600354600854604080517f081812fc00000000000000000000000000000000000000000000000000000000815260048101929092525130926001600160a01b03169163081812fc916024808301926020929190829003018186803b158015610b6f57600080fd5b505afa158015610b83573d6000803e3d6000fd5b505050506040513d6020811015610b9957600080fd5b50516001600160a01b031614610bae57600080fd5b600354600854604080517f6352211e00000000000000000000000000000000000000000000000000000000815260048101929092525133926001600160a01b031691636352211e916024808301926020929190829003018186803b158015610c1557600080fd5b505afa158015610c29573d6000803e3d6000fd5b505050506040513d6020811015610c3f57600080fd5b50516001600160a01b031614610c5457600080fd5b600354600854604080516323b872dd60e01b81523360048201523060248201526044810192909252516001600160a01b03909216916323b872dd9160648082019260009290919082900301818387803b158015610cb057600080fd5b505af1158015610cc4573d6000803e3d6000fd5b50506012805464ff0000000019166401000000001790555050604080517f457363726f7750726f70657274795269676874730000000000000000000000008152600160148201529051908190036034019020805460ff19169055610d26611e69565b565b6011805460408051602060026001851615610100026000190190941693909304601f81018490048402820184019092528181529291830182828015610dae5780601f10610d8357610100808354040283529160200191610dae565b820191906000526020600020905b815481529060010190602001808311610d9157829003601f168201915b505050505081565b610de56040518060400160405280600e81526020016d14995c5d595cdd111959985d5b1d60921b815250611191565b1515600114610df357600080fd5b60408051652632b73232b960d11b8152600260068201529051908190036026019020546001600160a01b0316610e565760408051652632b73232b960d11b815260026006820152905190819003602601902080546001600160a01b031916331790555b60408051652632b73232b960d11b815260026006820152905190819003602601902054336001600160a01b0390911614610e8f57600080fd5b8051610ea2906011906020840190612a01565b50604080516d14995c5d595cdd111959985d5b1d60921b81526001600e820152905190819003602e019020805460ff19169055610edd611e8a565b50565b80516020818301810180516002825292820191909301209152546001600160a01b031681565b610f446040518060400160405280601281526020017f457363726f774d6f6e657950617961626c650000000000000000000000000000815250611191565b1515600114610f5257600080fd5b60408051652632b73232b960d11b8152600260068201529051908190036026019020546001600160a01b0316610fb55760408051652632b73232b960d11b815260026006820152905190819003602601902080546001600160a01b031916331790555b60408051652632b73232b960d11b815260026006820152905190819003602601902054336001600160a01b0390911614610fee57600080fd5b600b5460095403341461100057600080fd5b6012805460ff1990811660019081178355604080517f457363726f774d6f6e657950617961626c650000000000000000000000000000815293840191909152519182900360320190912080549091169055610d26611e69565b60125462010000900460ff1681565b60006002826040518082805190602001908083835b6020831061109c5780518252601f19909201916020918201910161107d565b51815160209384036101000a60001901801990921691161790529201948552506040519384900301909220546001600160a01b0316949350505050565b601254610100900460ff1681565b60048054604080516020601f6002600019610100600188161502019095169490940493840181900481028201810190925282815291839183018282801561116f5780601f106111445761010080835404028352916020019161116f565b820191906000526020600020905b81548152906001019060200180831161115257829003601f168201915b5050506001909301549192505060ff1682565b6003546001600160a01b031681565b60006001826040518082805190602001908083835b602083106111c55780518252601f1990920191602091820191016111a6565b51815160209384036101000a600019018019909216911617905292019485525060405193849003019092205460ff16949350505050565b60105481565b6112236040518060600160405280602b8152602001612a9a602b9139611191565b151560011461123157600080fd5b60408051652632b73232b960d11b8152600260068201529051908190036026019020546001600160a01b03166112945760408051652632b73232b960d11b815260026006820152905190819003602601902080546001600160a01b031916331790555b60408051652632b73232b960d11b815260026006820152905190819003602601902054336001600160a01b03909116146112cd57600080fd5b600d5434146112db57600080fd5b60408051672137b93937bbb2b960c11b8152600260088201529051908190036028018120546001600160a01b0316904780156108fc02916000818181858888f19350505050158015611331573d6000803e3d6000fd5b50600060016040518080612a9a602b9139602b8101929092525060405190819003604b019020805491151560ff19909216919091179055610d26611ee7565b475b90565b60125460ff1681565b6003546001600160a01b031690565b600854600954600a54600b54600c54600d5486565b805160208183018101805160018252928201919093012091525460ff1681565b600680546007805460408051602060026101006001861615026000190190941693909304601f810184900484028201840190925281815260ff909416949392918301828280156114535780601f1061142857610100808354040283529160200191611453565b820191906000526020600020905b81548152906001019060200180831161143657829003601f168201915b5050505050905082565b61148f6040518060400160405280601181526020017021b0b731b2b620b8383634b1b0ba34b7b760791b815250611191565b151560011461149d57600080fd5b60408051672137b93937bbb2b960c11b8152600260088201529051908190036028019020546001600160a01b03166115045760408051672137b93937bbb2b960c11b815260026008820152905190819003602801902080546001600160a01b031916331790555b60408051672137b93937bbb2b960c11b815260026008820152905190819003602801902054336001600160a01b039091161461153f57600080fd5b8051611552906004906020840190612a01565b50604080517021b0b731b2b620b8383634b1b0ba34b7b760791b8152600160118201529051908190036031019020805460ff19169055610edd611fc2565b6115ce6040518060400160405280601881526020017f506179666f72746865426f72726f77657250617961626c650000000000000000815250611191565b15156001146115dc57600080fd5b604080516624b739bab932b960c91b8152600260078201529051908190036027019020546001600160a01b031661164157604080516624b739bab932b960c91b815260026007820152905190819003602701902080546001600160a01b031916331790555b604080516624b739bab932b960c91b815260026007820152905190819003602701902054336001600160a01b039091161461167b57600080fd5b600c54600a5460009190606490046001016008600301546008600101540302816116a157fe5b600e80549290910492509060001981019081106116ba57fe5b906000526020600020906003020160000154810334146116d957600080fd5b6040805160808101825234808252426020830190815233838501908152600160608501818152600e80548084018255600091909152955160039096027fbb7b4a454dc3493923482f07822329ed19e8244eff582cc204f8554c3620c3fd81019690965592517fbb7b4a454dc3493923482f07822329ed19e8244eff582cc204f8554c3620c3fe86015590517fbb7b4a454dc3493923482f07822329ed19e8244eff582cc204f8554c3620c3ff909401805492511515600160a01b0260ff60a01b196001600160a01b03969096166001600160a01b0319909416939093179490941691909117909255600d8054909101905581517f506179666f72746865426f72726f77657250617961626c650000000000000000815260188101919091529051908190036038019020805460ff19169055610edd61202e565b6118506040518060400160405280601581526020017f5061794d6f72746761676546656550617961626c650000000000000000000000815250611191565b151560011461185e57600080fd5b60408051672137b93937bbb2b960c11b8152600260088201529051908190036028019020546001600160a01b03166118c55760408051672137b93937bbb2b960c11b815260026008820152905190819003602801902080546001600160a01b031916331790555b60408051672137b93937bbb2b960c11b815260026008820152905190819003602801902054336001600160a01b039091161461190057600080fd5b600d80543490810190915560408051608081018252918252426020830190815233838301908152600160608501818152600e80548084018255600091909152955160039096027fbb7b4a454dc3493923482f07822329ed19e8244eff582cc204f8554c3620c3fd81019690965592517fbb7b4a454dc3493923482f07822329ed19e8244eff582cc204f8554c3620c3fe86015590517fbb7b4a454dc3493923482f07822329ed19e8244eff582cc204f8554c3620c3ff909401805492511515600160a01b0260ff60a01b196001600160a01b03969096166001600160a01b031990941693909317949094169190911790925580517f5061794d6f72746761676546656550617961626c6500000000000000000000008152601581019290925251908190036035019020805460ff19169055610d2661214f565b611a776040518060400160405280601881526020017f4170706c79466f72614d6f72746761676550617961626c650000000000000000815250611191565b1515600114611a8557600080fd5b60408051672137b93937bbb2b960c11b8152600260088201529051908190036028019020546001600160a01b0316611aec5760408051672137b93937bbb2b960c11b815260026008820152905190819003602801902080546001600160a01b031916331790555b60408051672137b93937bbb2b960c11b815260026008820152905190819003602801902054336001600160a01b0390911614611b2757600080fd5b60088490556009839055600a82905534600b55600c8190556012805463ff00000019166301000000179055604080517f4170706c79466f72614d6f72746761676550617961626c6500000000000000008152600160188201529051908190036038019020805460ff19169055611b9b612270565b50505050565b6012546301000000900460ff1681565b600f5460ff1681565b611bf86040518060400160405280601381526020017f436865636b496e64656d6e6974795465726d7300000000000000000000000000815250611191565b1515600114611c0657600080fd5b604080516624b739bab932b960c91b8152600260078201529051908190036027019020546001600160a01b0316611c6b57604080516624b739bab932b960c91b815260026007820152905190819003602701902080546001600160a01b031916331790555b604080516624b739bab932b960c91b815260026007820152905190819003602701902054336001600160a01b0390911614611ca557600080fd5b601280548215156101000261ff0019909116179055604080517f436865636b496e64656d6e6974795465726d73000000000000000000000000008152600160138201529051908190036033019020805460ff19169055610edd6122b4565b611d416040518060400160405280600f81526020017f416363657074496e737572616e63650000000000000000000000000000000000815250611191565b1515600114611d4f57600080fd5b604080516624b739bab932b960c91b8152600260078201529051908190036027019020546001600160a01b0316611db457604080516624b739bab932b960c91b815260026007820152905190819003602701902080546001600160a01b031916331790555b604080516624b739bab932b960c91b815260026007820152905190819003602701902054336001600160a01b0390911614611dee57600080fd5b6006805460ff191660011790558051611e0e906007906020840190612a01565b50604080517f416363657074496e737572616e6365000000000000000000000000000000000081526001600f820152905190819003602f019020805460ff19169055610edd611e69565b601254640100000000900460ff1681565b600080546001019081905560031415610d2657611e84612326565b60008055565b600e54600090611e9d5750601054611ec4565b600e80546000198101908110611eaf57fe5b90600052602060002090600302016001015490505b625079908142031115611edf57600f805460ff191660011790555b610edd6123d6565b60035460408051652632b73232b960d11b8152600260068201528151908190036026018120546008546323b872dd60e01b83523060048401526001600160a01b0391821660248401526044830152915191909216916323b872dd91606480830192600092919082900301818387803b158015611f6257600080fd5b505af1158015611f76573d6000803e3d6000fd5b5050604080517f4c6f616e44656661756c7465640000000000000000000000000000000000000081526001600d8201819052915190819003602d019020805460ff191690911790555050565b6012546301000000900460ff1615611fe157611fdc61242a565b610d26565b6012546301000000900460ff16610d2657604080517021b0b731b2b620b8383634b1b0ba34b7b760791b81526001601182018190529151908190036031019020805460ff19169091179055565b600e8054600091606491600019810190811061204657fe5b906000526020600020906003020160000154605f028161206257fe5b60408051652632b73232b960d11b8152600260068201529051908190036026018120549290910492506001600160a01b039091169082156108fc029083906000818181858888f193505050501580156120bf573d6000803e3d6000fd5b50604080516624b739bab932b960c91b815260026007820152905190819003602701902054600e80546001600160a01b03909216916108fc918491600019810190811061210857fe5b906000526020600020906003020160000154039081150290604051600060405180830381858888f19350505050158015612146573d6000803e3d6000fd5b50610edd6125e7565b600e8054600091606491600019810190811061216757fe5b906000526020600020906003020160000154605f028161218357fe5b60408051652632b73232b960d11b8152600260068201529051908190036026018120549290910492506001600160a01b039091169082156108fc029083906000818181858888f193505050501580156121e0573d6000803e3d6000fd5b50604080516624b739bab932b960c91b815260026007820152905190819003602701902054600e80546001600160a01b03909216916108fc918491600019810190811061222957fe5b906000526020600020906003020160000154039081150290604051600060405180830381858888f19350505050158015612267573d6000803e3d6000fd5b50610edd61262f565b6122786126c2565b604080517021b0b731b2b620b8383634b1b0ba34b7b760791b81526001601182018190529151908190036031019020805460ff19169091179055565b601254610100900460ff161561230f57604080517f506179666f72746865426f72726f77657250617961626c65000000000000000081526001601882018190529151908190036038019020805460ff19169091179055610d26565b601254610100900460ff16610d2657610d266125e7565b604080516d283937b832b93a3c9027bbb732b960911b81526002600e820152905190819003602e018120546009546001600160a01b039091169181156108fc0291906000818181858888f19350505050158015612387573d6000803e3d6000fd5b5042601055604080517021b0b731b2b620b8383634b1b0ba34b7b760791b8152600160118201529051908190036031019020805460ff191690556012805463ff00000019169055610d26612787565b600f5460ff166123e857611fdc612793565b600f5460ff1615610d26576001806040518080612a9a602b9139602b8101929092525060405190819003604b019020805491151560ff19909216919091179055565b60125460ff16156124945760408051652632b73232b960d11b815260026006820152905190819003602601812054600b546009546001600160a01b0390921692910380156108fc02916000818181858888f19350505050158015612492573d6000803e3d6000fd5b505b601254640100000000900460ff161561254357600354604080516d283937b832b93a3c9027bbb732b960911b81526002600e820152815190819003602e018120546008546323b872dd60e01b83523060048401526001600160a01b0391821660248401526044830152915191909216916323b872dd91606480830192600092919082900301818387803b15801561252a57600080fd5b505af115801561253e573d6000803e3d6000fd5b505050505b60408051672137b93937bbb2b960c11b815260026008820152905190819003602801812054600b546001600160a01b039091169181156108fc0291906000818181858888f1935050505015801561259e573d6000803e3d6000fd5b50604080517f436f6e747261637443616e63656c6c656400000000000000000000000000000081526001601182018190529151908190036031019020805460ff19169091179055565b604080517f5061794d6f72746761676546656550617961626c65000000000000000000000081526001601582018190529151908190036035019020805460ff19169091179055565b600c54600a54600091906064900460010160086003015460086001015403028161265557fe5b600e8054929091049250600091600019810190811061267057fe5b9060005260206000209060030201905081816000015410156126a05760028101805460ff60a01b191690556126b6565b60028101805460ff60a01b1916600160a01b1790555b6126be6127cc565b5050565b604080517f457363726f7750726f706572747952696768747300000000000000000000000081526001601482018190528251918290036034018220805460ff1990811683179091557f416363657074496e737572616e636500000000000000000000000000000000008352600f8301829052835192839003602f01832080548216831790557f457363726f774d6f6e657950617961626c6500000000000000000000000000008352601283018290529251918290036032019091208054909216179055565b61278f6125e7565b610d265b604080516d14995c5d595cdd111959985d5b1d60921b81526001600e8201819052915190819003602e019020805460ff19169091179055565b600a54606490046001016008600301546008600101540302600860050154106127f757611fdc612823565b600a546064900460010160086003015460086001015403026008600501541015610d2657610d26612943565b60035460408051672137b93937bbb2b960c11b8152600260088083019190915282519182900360280182205490546323b872dd60e01b83523060048401526001600160a01b0391821660248401526044830152915191909216916323b872dd91606480830192600092919082900301818387803b1580156128a357600080fd5b505af11580156128b7573d6000803e3d6000fd5b5050604080516d14995c5d595cdd111959985d5b1d60921b81526001600e8201819052825191829003602e018220805460ff199081169091557f4c6f616e436f6d706c65746564000000000000000000000000000000000000008352600d8301829052925191829003602d01909120805490921617905550506012805462ff0000191662010000179055565b600e8054600019810190811061295557fe5b906000526020600020906003020160020160149054906101000a900460ff166129c357604080517f436865636b496e64656d6e6974795465726d730000000000000000000000000081526001601382018190529151908190036033019020805460ff19169091179055610d26565b600e805460001981019081106129d557fe5b906000526020600020906003020160020160149054906101000a900460ff1615610d2657610d266125e7565b828054600181600116156101000203166002900490600052602060002090601f016020900481019282601f10612a4257805160ff1916838001178555612a6f565b82800160010185558215612a6f579182015b82811115612a6f578251825591602001919060010190612a54565b50612a7b929150612a7f565b5090565b61137291905b80821115612a7b5760008155600101612a8556fe5472616e7366657250726f706f7274696f6e4d6f6e6579746f746865426f72726f77657250617961626c65a2646970667358221220b571784c48f0d5f9988fcb0044de71c964fc06ea3f0a410914ca8c6ab963b99d64736f6c63430006060033",
  "immutableReferences": {},
  "source": "pragma solidity ^0.6.6;\n\nimport \"@openzeppelin/contracts/access/Ownable.sol\";\nimport \"@openzeppelin/contracts/token/ERC721/ERC721.sol\";\nimport \"./HouseToken.sol\";\n\n\ncontract MortgageContract { \n\t\n\tfunction getPropertyTokenAddress() public view returns (address) {\n\t\treturn address(propertyToken);\n\t}\n\n\tfunction getContractBalance() public view returns (uint256) {\n\t\treturn address(this).balance;\n\t}\n\n\n\tint Gateway_1whiz9yIncoming = 0;\n\n\tmapping(string => bool) public Process_1ActiveStates;\n\n\tmapping(string => address) public addressMapping;\n\n\tHouseToken public propertyToken;\n\n\tMortgageCancellation public mortgageCancellation;\n\n\tInsurance public insurance;\n\n\tMortgage public mortgage;\n\n\tbool public termsViolated;\n\n\tuint public contractValidDate;\n\n\tstring public mortgageDefaultRequest;\n\n\tbool public lenderAgreed;\n\n\tbool public isIndemnityValid;\n\n\tbool public mortgageCompleted;\n\n\tbool public isContractCancelable;\n\n\tbool public ownerAgreed;\n\n\tstruct Mortgage{\n\t\tuint256 propertyId;\n\t\tuint256 propertyPrice;\n\t\tuint256 rate;\n\t\tuint256 downPaymentValue;\n\t\tuint256 mortgageDurationMonths;\n\t\tuint256 totalPaid;\n\t\tPayment[] payments;\n\t}\n\n\tstruct Insurance{\n\t\tbool isEnsured;\n\t\tstring additionalInformation;\n\t}\n\n\tstruct MortgageCancellation{\n\t\tstring reason;\n\t\tbool confirmation;\n\t}\n\n\tstruct Payment{\n\t\tuint256 amount;\n\t\tuint paymentDateTime;\n\t\taddress sender;\n\t\tbool onSchedule;\n\t}\n\n\tfunction isStateActiveProcess_1(string memory state) public view returns(bool){\n\t\treturn Process_1ActiveStates[state];\n\t}\n\n\tfunction getRoleAddress(string memory role) public view returns(address) {\n\t\treturn addressMapping[role];\n\t}\n\n\tconstructor(address propertyTokenAddress) public payable{\n\t\tpropertyToken = HouseToken(propertyTokenAddress);\n\t\tProcess_1ActiveStates[\"ApplyForaMortgagePayable\"] = true;\n\t}\n\n\tmodifier isApplyForaMortgagePayableState{\n\t\trequire(isStateActiveProcess_1(\"ApplyForaMortgagePayable\") == true);\n\t\t_;\n\t}\n\n\tmodifier isApplyForaMortgagePayableAuthorized{\n\t\tif(addressMapping[\"Borrower\"] == address(0x0)){\n\t\t\taddressMapping[\"Borrower\"] = msg.sender;\n\t\t}\n\t\trequire(msg.sender==addressMapping[\"Borrower\"]);\n\t\t_;\n\t}\n\n\tfunction ApplyForaMortgagePayable(uint256 propertyId, uint256 propertyPrice, uint256 rate, uint256 mortgageDurationMonths) payable isApplyForaMortgagePayableState() isApplyForaMortgagePayableAuthorized() public {\n\t\tmortgage.propertyId = propertyId;\n\t\tmortgage.propertyPrice = propertyPrice;\n\t\tmortgage.rate = rate;\n\t\tmortgage.downPaymentValue = msg.value;\n\t\tmortgage.mortgageDurationMonths = mortgageDurationMonths;\n    \tisContractCancelable = true;\n          \n\t\tProcess_1ActiveStates[\"ApplyForaMortgagePayable\"] = false;\n\t\tGateway_0dznqqs();\n\t}\n\n\tfunction Gateway_1ps7u6w() internal {\n\t\tProcess_1ActiveStates[\"EscrowPropertyRights\"] = true;\n\t\tProcess_1ActiveStates[\"AcceptInsurance\"] = true;\n\t\tProcess_1ActiveStates[\"EscrowMoneyPayable\"] = true;\n\t}\n\n\tmodifier isAcceptInsuranceState{\n\t\trequire(isStateActiveProcess_1(\"AcceptInsurance\") == true);\n\t\t_;\n\t}\n\n\tmodifier isAcceptInsuranceAuthorized{\n\t\tif(addressMapping[\"Insurer\"] == address(0x0)){\n\t\t\taddressMapping[\"Insurer\"] = msg.sender;\n\t\t}\n\t\trequire(msg.sender==addressMapping[\"Insurer\"]);\n\t\t_;\n\t}\n\n\tfunction AcceptInsurance(string memory notes) isAcceptInsuranceState() isAcceptInsuranceAuthorized() public {\n\t\tinsurance.isEnsured = true;\n\t\tinsurance.additionalInformation = notes;\n\t\tProcess_1ActiveStates[\"AcceptInsurance\"] = false;\n\t\tGateway_1whiz9y();\n\t}\n\n\tmodifier isEscrowPropertyRightsState{\n\t\trequire(isStateActiveProcess_1(\"EscrowPropertyRights\") == true);\n\t\t_;\n\t}\n\n\tmodifier isEscrowPropertyRightsAuthorized{\n\t\tif(addressMapping[\"Property Owner\"] == address(0x0)){\n\t\t\taddressMapping[\"Property Owner\"] = msg.sender;\n\t\t}\n\t\trequire(msg.sender==addressMapping[\"Property Owner\"]);\n\t\t_;\n\t}\n\n\tfunction EscrowPropertyRights() isEscrowPropertyRightsState() isEscrowPropertyRightsAuthorized() public {\n\t\trequire(propertyToken.getApproved(mortgage.propertyId) == address(this));\n\t    require(propertyToken.ownerOf(mortgage.propertyId) == msg.sender);\n\t    propertyToken.transferFrom(msg.sender, address(this), mortgage.propertyId);\n\t    ownerAgreed = true;\n\t\tProcess_1ActiveStates[\"EscrowPropertyRights\"] = false;\n\t\tGateway_1whiz9y();\n\t}\n\n\tmodifier isEscrowMoneyPayableState{\n\t\trequire(isStateActiveProcess_1(\"EscrowMoneyPayable\") == true);\n\t\t_;\n\t}\n\n\tmodifier isEscrowMoneyPayableAuthorized{\n\t\tif(addressMapping[\"Lender\"] == address(0x0)){\n\t\t\taddressMapping[\"Lender\"] = msg.sender;\n\t\t}\n\t\trequire(msg.sender==addressMapping[\"Lender\"]);\n\t\t_;\n\t}\n\n\tfunction EscrowMoneyPayable() payable isEscrowMoneyPayableState() isEscrowMoneyPayableAuthorized() public {\n\t\trequire(msg.value == mortgage.propertyPrice - mortgage.downPaymentValue);\n\t\tlenderAgreed = true;\n\t\tProcess_1ActiveStates[\"EscrowMoneyPayable\"] = false;\n\t\tGateway_1whiz9y();\n\t}\n\n\tfunction Gateway_1whiz9y() internal {\n\t\tGateway_1whiz9yIncoming += 1;\n\t\tif(Gateway_1whiz9yIncoming==3){\n\t\t\tPayOwnerPayment();\n\t\t\tGateway_1whiz9yIncoming = 0;\n\t\t}\n\t}\n\n\tfunction ReleaseEscrows() internal {\n\t\tif(lenderAgreed)\n            payable(addressMapping[\"Lender\"]).transfer(mortgage.propertyPrice - mortgage.downPaymentValue);\n        if(ownerAgreed)\n            propertyToken.transferFrom(address(this),addressMapping[\"Property Owner\"], mortgage.propertyId);\n        payable(addressMapping[\"Borrower\"]).transfer(mortgage.downPaymentValue);\n\t\tProcess_1ActiveStates[\"ContractCancelled\"] = true;\n\t}\n\n\tmodifier isCancelApplicationState{\n\t\trequire(isStateActiveProcess_1(\"CancelApplication\") == true);\n\t\t_;\n\t}\n\n\tmodifier isCancelApplicationAuthorized{\n\t\tif(addressMapping[\"Borrower\"] == address(0x0)){\n\t\t\taddressMapping[\"Borrower\"] = msg.sender;\n\t\t}\n\t\trequire(msg.sender==addressMapping[\"Borrower\"]);\n\t\t_;\n\t}\n\n\tfunction CancelApplication(string memory reason) isCancelApplicationState() isCancelApplicationAuthorized() public {\n\t\tmortgageCancellation.reason = reason;\n\t\tProcess_1ActiveStates[\"CancelApplication\"] = false;\n\t\tGateway_1wbe662();\n\t}\n\n\tfunction PayOwnerPayment() internal {\n\t\tpayable(addressMapping[\"Property Owner\"]).transfer(mortgage.propertyPrice);\n\t\tcontractValidDate = now;\n\t\tProcess_1ActiveStates[\"CancelApplication\"] = false;//\n\t\tisContractCancelable = false;//\n\t\tGateway_1b1r7rx();\n\t}\n\n\tfunction Gateway_1egt0pj() internal {\n\t\tProcess_1ActiveStates[\"PayMortgageFeePayable\"] = true;\n\t}\n\n\tfunction Gateway_1b1r7rx() internal {\n\t\tGateway_1egt0pj();\n\t\tGateway_1rnm0w1();\n\t}\n\n\tmodifier isRequestDefaultState{\n\t\trequire(isStateActiveProcess_1(\"RequestDefault\") == true);\n\t\t_;\n\t}\n\n\tmodifier isRequestDefaultAuthorized{\n\t\tif(addressMapping[\"Lender\"] == address(0x0)){\n\t\t\taddressMapping[\"Lender\"] = msg.sender;\n\t\t}\n\t\trequire(msg.sender==addressMapping[\"Lender\"]);\n\t\t_;\n\t}\n\n\tfunction RequestDefault(string memory reason) isRequestDefaultState() isRequestDefaultAuthorized() public {\n\t\tmortgageDefaultRequest = reason;\n\t\tProcess_1ActiveStates[\"RequestDefault\"] = false;\n\t\tValidateTermsViolation();\n\t}\n\n\tfunction Gateway_1rnm0w1() internal {\n\t\tProcess_1ActiveStates[\"RequestDefault\"] = true;\n\t}\n\n\tfunction ValidateTermsViolation() internal {\n\t\tuint lastPaymentDate;\n\t\tif(mortgage.payments.length == 0)\n\t\t    lastPaymentDate = contractValidDate;\n\t\telse\n\t\t    lastPaymentDate = mortgage.payments[mortgage.payments.length-1].paymentDateTime;\n\t\tif(now - lastPaymentDate > 5274000)\n\t\t    termsViolated = true;\n\t\tGateway_1c0jk30();\n\t}\n\n\tfunction Gateway_1c0jk30() internal {\n\t\tif(!termsViolated){\n\t\t\tGateway_1rnm0w1();\n\t\t}\n\t\telse if(termsViolated){\n\t\t\tProcess_1ActiveStates[\"TransferProportionMoneytotheBorrowerPayable\"] = true;\n\t\t}\n\t}\n\n\tfunction TransferthePropertytotheLender() internal {\n\t\tpropertyToken.transferFrom(address(this),addressMapping[\"Lender\"], mortgage.propertyId);\n\t\tProcess_1ActiveStates[\"LoanDefaulted\"] = true;\n\t}\n\n\tmodifier isPayMortgageFeePayableState{\n\t\trequire(isStateActiveProcess_1(\"PayMortgageFeePayable\") == true);\n\t\t_;\n\t}\n\n\tmodifier isPayMortgageFeePayableAuthorized{\n\t\tif(addressMapping[\"Borrower\"] == address(0x0)){\n\t\t\taddressMapping[\"Borrower\"] = msg.sender;\n\t\t}\n\t\trequire(msg.sender==addressMapping[\"Borrower\"]);\n\t\t_;\n\t}\n\n\tfunction PayMortgageFeePayable() payable isPayMortgageFeePayableState() isPayMortgageFeePayableAuthorized() public {\n\t\tmortgage.totalPaid += msg.value;\n        mortgage.payments.push(Payment(msg.value, now, msg.sender, true));\n\t\tProcess_1ActiveStates[\"PayMortgageFeePayable\"] = false;\n\t\tPaymenttotheInsurerandLender();\n\t}\n\n\tfunction CheckPaymentSchedule() internal {\n\t\tuint256 monthlyFee = (mortgage.propertyPrice - mortgage.downPaymentValue)*(1+mortgage.rate/100)/mortgage.mortgageDurationMonths;\n        Payment storage lastPayment = mortgage.payments[mortgage.payments.length-1];\n        if (lastPayment.amount < monthlyFee) {\n            lastPayment.onSchedule = false; \n        } \n        else {\n            lastPayment.onSchedule = true; \n        }\n          \n\t\tGateway_04v6h62();\n\t}\n\n\tfunction Gateway_04v6h62() internal {\n\t\tif(mortgage.totalPaid >=(mortgage.propertyPrice - mortgage.downPaymentValue)*(1+mortgage.rate/100)){\n\t\t\tTransferthePropertytotheBorrower();\n\t\t}\n\t\telse if(mortgage.totalPaid < (mortgage.propertyPrice - mortgage.downPaymentValue)*(1+mortgage.rate/100)){\n\t\t\tGateway_1wj3ze2();\n\t\t}\n\t}\n\n\tfunction TransferthePropertytotheBorrower() internal {\n\t\tpropertyToken.transferFrom(address(this),addressMapping[\"Borrower\"], mortgage.propertyId);\n\t\tProcess_1ActiveStates[\"RequestDefault\"] = false;\n\t\tProcess_1ActiveStates[\"LoanCompleted\"] = true;\t\t\n\t\tmortgageCompleted = true;\n\t}\n\n\tmodifier isCheckIndemnityTermsState{\n\t\trequire(isStateActiveProcess_1(\"CheckIndemnityTerms\") == true);\n\t\t_;\n\t}\n\n\tmodifier isCheckIndemnityTermsAuthorized{\n\t\tif(addressMapping[\"Insurer\"] == address(0x0)){\n\t\t\taddressMapping[\"Insurer\"] = msg.sender;\n\t\t}\n\t\trequire(msg.sender==addressMapping[\"Insurer\"]);\n\t\t_;\n\t}\n\n\tfunction CheckIndemnityTerms(bool validity) isCheckIndemnityTermsState() isCheckIndemnityTermsAuthorized() public {\n\t\tisIndemnityValid = validity;\n\t\tProcess_1ActiveStates[\"CheckIndemnityTerms\"] = false;\n\t\tGateway_04bakm7();\n\t}\n\n\tfunction Gateway_04bakm7() internal {\n\t\tif(isIndemnityValid){\n\t\t\tProcess_1ActiveStates[\"PayfortheBorrowerPayable\"] = true;\n\t\t}\n\t\telse if(!isIndemnityValid){\n\t\t\tGateway_1egt0pj();\n\t\t}\n\t}\n\n\tmodifier isPayfortheBorrowerPayableState{\n\t\trequire(isStateActiveProcess_1(\"PayfortheBorrowerPayable\") == true);\n\t\t_;\n\t}\n\n\tmodifier isPayfortheBorrowerPayableAuthorized{\n\t\tif(addressMapping[\"Insurer\"] == address(0x0)){\n\t\t\taddressMapping[\"Insurer\"] = msg.sender;\n\t\t}\n\t\trequire(msg.sender==addressMapping[\"Insurer\"]);\n\t\t_;\n\t}\n\n\tfunction PayfortheBorrowerPayable() payable isPayfortheBorrowerPayableState() isPayfortheBorrowerPayableAuthorized() public {\n\t\tuint256 monthlyFee = (mortgage.propertyPrice - mortgage.downPaymentValue)*(1+mortgage.rate/100)/mortgage.mortgageDurationMonths;\n\t\trequire(msg.value == monthlyFee - mortgage.payments[mortgage.payments.length-1].amount);\n\t\tmortgage.payments.push(Payment(msg.value, now, msg.sender, true));\n\t\tmortgage.totalPaid += msg.value;\n\t\tProcess_1ActiveStates[\"PayfortheBorrowerPayable\"] = false;\n\t\tProcessInsurerPayment();\n\t}\n\n\tfunction PaymenttotheInsurerandLender() internal {\n\t\tuint256 amountToLender = mortgage.payments[mortgage.payments.length-1].amount*95/100;\n        payable(addressMapping[\"Lender\"]).transfer(amountToLender);\n        payable(addressMapping[\"Insurer\"]).transfer(mortgage.payments[mortgage.payments.length-1].amount - amountToLender);\n          \n\t\tCheckPaymentSchedule();\n\t}\n\n\tmodifier isTransferProportionMoneytotheBorrowerPayableState{\n\t\trequire(isStateActiveProcess_1(\"TransferProportionMoneytotheBorrowerPayable\") == true);\n\t\t_;\n\t}\n\n\tmodifier isTransferProportionMoneytotheBorrowerPayableAuthorized{\n\t\tif(addressMapping[\"Lender\"] == address(0x0)){\n\t\t\taddressMapping[\"Lender\"] = msg.sender;\n\t\t}\n\t\trequire(msg.sender==addressMapping[\"Lender\"]);\n\t\t_;\n\t}\n\n\tfunction TransferProportionMoneytotheBorrowerPayable() payable isTransferProportionMoneytotheBorrowerPayableState() isTransferProportionMoneytotheBorrowerPayableAuthorized() public {\n\t\trequire(msg.value == mortgage.totalPaid); //simplified\n\t\tpayable(addressMapping[\"Borrower\"]).transfer(address(this).balance);\n\t\tProcess_1ActiveStates[\"TransferProportionMoneytotheBorrowerPayable\"] = false;\n\t\tTransferthePropertytotheLender();\n\t}\n\n\tfunction Gateway_0dznqqs() internal {\n\t\tGateway_1ps7u6w();\n\t\tProcess_1ActiveStates[\"CancelApplication\"] = true;\n\t}\n\n\tfunction Gateway_1wbe662() internal {\n\t\tif(isContractCancelable){\n\t\t\tReleaseEscrows();\n\t\t}\n\t\telse if(!isContractCancelable){\n\t\t\tProcess_1ActiveStates[\"CancelApplication\"] = true;\n\t\t}\n\t}\n\n\tfunction Gateway_1wj3ze2() internal {\n\t\tif(!mortgage.payments[mortgage.payments.length-1].onSchedule){\n\t\t\tProcess_1ActiveStates[\"CheckIndemnityTerms\"] = true;\n\t\t}\n\t\telse if(mortgage.payments[mortgage.payments.length-1].onSchedule){\n\t\t\tGateway_1egt0pj();\n\t\t}\n\t}\n\n\tfunction ProcessInsurerPayment() internal {\n\t\tuint256 amountToLender = mortgage.payments[mortgage.payments.length-1].amount*95/100;\n        payable(addressMapping[\"Lender\"]).transfer(amountToLender);\n        payable(addressMapping[\"Insurer\"]).transfer(mortgage.payments[mortgage.payments.length-1].amount - amountToLender);\n          \n\t\tGateway_1egt0pj();\n\t}\n\n }",
  "sourcePath": "C:/Users/Pean/Downloads/frontEndTest/contracts/MortgageContract.sol",
  "compiler": {
    "name": "solc",
    "version": "0.6.6+commit.6c089d02.Emscripten.clang"
  },
  "schemaVersion": "3.3.4",
  "updatedAt": "2021-04-11T16:31:39.848Z",
  "networkType": "ethereum",
  "devdoc": {
    "methods": {}
  },
  "userdoc": {
    "methods": {}
  }
}